{
  "_format": "hh-sol-artifact-1",
  "contractName": "NFTCollection",
  "sourceName": "contracts/NFTCollection.sol",
  "abi": [
    {
      "inputs": [],
      "stateMutability": "nonpayable",
      "type": "constructor"
    },
    {
      "anonymous": false,
      "inputs": [
        {
          "indexed": true,
          "internalType": "address",
          "name": "owner",
          "type": "address"
        },
        {
          "indexed": true,
          "internalType": "address",
          "name": "approved",
          "type": "address"
        },
        {
          "indexed": true,
          "internalType": "uint256",
          "name": "tokenId",
          "type": "uint256"
        }
      ],
      "name": "Approval",
      "type": "event"
    },
    {
      "anonymous": false,
      "inputs": [
        {
          "indexed": true,
          "internalType": "address",
          "name": "owner",
          "type": "address"
        },
        {
          "indexed": true,
          "internalType": "address",
          "name": "operator",
          "type": "address"
        },
        {
          "indexed": false,
          "internalType": "bool",
          "name": "approved",
          "type": "bool"
        }
      ],
      "name": "ApprovalForAll",
      "type": "event"
    },
    {
      "anonymous": false,
      "inputs": [
        {
          "indexed": false,
          "internalType": "uint256",
          "name": "index",
          "type": "uint256"
        },
        {
          "indexed": true,
          "internalType": "address",
          "name": "mintedBy",
          "type": "address"
        }
      ],
      "name": "Mint",
      "type": "event"
    },
    {
      "anonymous": false,
      "inputs": [
        {
          "indexed": true,
          "internalType": "address",
          "name": "from",
          "type": "address"
        },
        {
          "indexed": true,
          "internalType": "address",
          "name": "to",
          "type": "address"
        },
        {
          "indexed": true,
          "internalType": "uint256",
          "name": "tokenId",
          "type": "uint256"
        }
      ],
      "name": "Transfer",
      "type": "event"
    },
    {
      "inputs": [
        {
          "internalType": "address",
          "name": "to",
          "type": "address"
        },
        {
          "internalType": "uint256",
          "name": "tokenId",
          "type": "uint256"
        }
      ],
      "name": "approve",
      "outputs": [],
      "stateMutability": "nonpayable",
      "type": "function"
    },
    {
      "inputs": [
        {
          "internalType": "address",
          "name": "owner",
          "type": "address"
        }
      ],
      "name": "balanceOf",
      "outputs": [
        {
          "internalType": "uint256",
          "name": "",
          "type": "uint256"
        }
      ],
      "stateMutability": "view",
      "type": "function"
    },
    {
      "inputs": [
        {
          "internalType": "uint256",
          "name": "tokenId",
          "type": "uint256"
        }
      ],
      "name": "getApproved",
      "outputs": [
        {
          "internalType": "address",
          "name": "",
          "type": "address"
        }
      ],
      "stateMutability": "view",
      "type": "function"
    },
    {
      "inputs": [
        {
          "internalType": "address",
          "name": "owner",
          "type": "address"
        },
        {
          "internalType": "address",
          "name": "operator",
          "type": "address"
        }
      ],
      "name": "isApprovedForAll",
      "outputs": [
        {
          "internalType": "bool",
          "name": "",
          "type": "bool"
        }
      ],
      "stateMutability": "view",
      "type": "function"
    },
    {
      "inputs": [
        {
          "internalType": "string",
          "name": "_nftName",
          "type": "string"
        },
        {
          "internalType": "string",
          "name": "_nftURI",
          "type": "string"
        }
      ],
      "name": "mintNFT",
      "outputs": [
        {
          "internalType": "uint256",
          "name": "",
          "type": "uint256"
        }
      ],
      "stateMutability": "nonpayable",
      "type": "function"
    },
    {
      "inputs": [],
      "name": "name",
      "outputs": [
        {
          "internalType": "string",
          "name": "",
          "type": "string"
        }
      ],
      "stateMutability": "view",
      "type": "function"
    },
    {
      "inputs": [
        {
          "internalType": "uint256",
          "name": "tokenId",
          "type": "uint256"
        }
      ],
      "name": "ownerOf",
      "outputs": [
        {
          "internalType": "address",
          "name": "",
          "type": "address"
        }
      ],
      "stateMutability": "view",
      "type": "function"
    },
    {
      "inputs": [
        {
          "internalType": "address",
          "name": "from",
          "type": "address"
        },
        {
          "internalType": "address",
          "name": "to",
          "type": "address"
        },
        {
          "internalType": "uint256",
          "name": "tokenId",
          "type": "uint256"
        }
      ],
      "name": "safeTransferFrom",
      "outputs": [],
      "stateMutability": "nonpayable",
      "type": "function"
    },
    {
      "inputs": [
        {
          "internalType": "address",
          "name": "from",
          "type": "address"
        },
        {
          "internalType": "address",
          "name": "to",
          "type": "address"
        },
        {
          "internalType": "uint256",
          "name": "tokenId",
          "type": "uint256"
        },
        {
          "internalType": "bytes",
          "name": "_data",
          "type": "bytes"
        }
      ],
      "name": "safeTransferFrom",
      "outputs": [],
      "stateMutability": "nonpayable",
      "type": "function"
    },
    {
      "inputs": [
        {
          "internalType": "address",
          "name": "operator",
          "type": "address"
        },
        {
          "internalType": "bool",
          "name": "approved",
          "type": "bool"
        }
      ],
      "name": "setApprovalForAll",
      "outputs": [],
      "stateMutability": "nonpayable",
      "type": "function"
    },
    {
      "inputs": [
        {
          "internalType": "bytes4",
          "name": "interfaceId",
          "type": "bytes4"
        }
      ],
      "name": "supportsInterface",
      "outputs": [
        {
          "internalType": "bool",
          "name": "",
          "type": "bool"
        }
      ],
      "stateMutability": "view",
      "type": "function"
    },
    {
      "inputs": [],
      "name": "symbol",
      "outputs": [
        {
          "internalType": "string",
          "name": "",
          "type": "string"
        }
      ],
      "stateMutability": "view",
      "type": "function"
    },
    {
      "inputs": [
        {
          "internalType": "uint256",
          "name": "tokenId",
          "type": "uint256"
        }
      ],
      "name": "tokenURI",
      "outputs": [
        {
          "internalType": "string",
          "name": "",
          "type": "string"
        }
      ],
      "stateMutability": "view",
      "type": "function"
    },
    {
      "inputs": [
        {
          "internalType": "address",
          "name": "from",
          "type": "address"
        },
        {
          "internalType": "address",
          "name": "to",
          "type": "address"
        },
        {
          "internalType": "uint256",
          "name": "tokenId",
          "type": "uint256"
        }
      ],
      "name": "transferFrom",
      "outputs": [],
      "stateMutability": "nonpayable",
      "type": "function"
    },
    {
      "inputs": [
        {
          "internalType": "address",
          "name": "from",
          "type": "address"
        },
        {
          "internalType": "address",
          "name": "to",
          "type": "address"
        },
        {
          "internalType": "uint256",
          "name": "tokenId",
          "type": "uint256"
        }
      ],
      "name": "transferNFTFrom",
      "outputs": [
        {
          "internalType": "bool",
          "name": "",
          "type": "bool"
        }
      ],
      "stateMutability": "nonpayable",
      "type": "function"
    }
  ],
  "bytecode": "0x60806040523480156200001157600080fd5b506040518060400160405280600e81526020017f4e465420436f6c6c656374696f6e0000000000000000000000000000000000008152506040518060400160405280600481526020017f4e46544300000000000000000000000000000000000000000000000000000000815250816000908051906020019062000096929190620000b8565b508060019080519060200190620000af929190620000b8565b505050620001cd565b828054620000c69062000168565b90600052602060002090601f016020900481019282620000ea576000855562000136565b82601f106200010557805160ff191683800117855562000136565b8280016001018555821562000136579182015b828111156200013557825182559160200191906001019062000118565b5b50905062000145919062000149565b5090565b5b80821115620001645760008160009055506001016200014a565b5090565b600060028204905060018216806200018157607f821691505b602082108114156200019857620001976200019e565b5b50919050565b7f4e487b7100000000000000000000000000000000000000000000000000000000600052602260045260246000fd5b61293180620001dd6000396000f3fe608060405234801561001057600080fd5b50600436106100f55760003560e01c806370a0823111610097578063c87b56dd11610066578063c87b56dd14610282578063cde08c40146102b2578063e9605544146102e2578063e985e9c514610312576100f5565b806370a08231146101fc57806395d89b411461022c578063a22cb4651461024a578063b88d4fde14610266576100f5565b8063095ea7b3116100d3578063095ea7b31461017857806323b872dd1461019457806342842e0e146101b05780636352211e146101cc576100f5565b806301ffc9a7146100fa57806306fdde031461012a578063081812fc14610148575b600080fd5b610114600480360381019061010f9190611b65565b610342565b60405161012191906122c9565b60405180910390f35b610132610424565b60405161013f91906122e4565b60405180910390f35b610162600480360381019061015d9190611c23565b6104b6565b60405161016f9190612262565b60405180910390f35b610192600480360381019061018d9190611b29565b61053b565b005b6101ae60048036038101906101a99190611a23565b610653565b005b6101ca60048036038101906101c59190611a23565b6106b3565b005b6101e660048036038101906101e19190611c23565b6106d3565b6040516101f39190612262565b60405180910390f35b610216600480360381019061021191906119be565b610785565b60405161022391906124c6565b60405180910390f35b61023461083d565b60405161024191906122e4565b60405180910390f35b610264600480360381019061025f9190611aed565b6108cf565b005b610280600480360381019061027b9190611a72565b610a50565b005b61029c60048036038101906102979190611c23565b610ab2565b6040516102a991906122e4565b60405180910390f35b6102cc60048036038101906102c79190611a23565b610b59565b6040516102d991906122c9565b60405180910390f35b6102fc60048036038101906102f79190611bb7565b610b71565b60405161030991906124c6565b60405180910390f35b61032c600480360381019061032791906119e7565b610c67565b60405161033991906122c9565b60405180910390f35b60007f80ac58cd000000000000000000000000000000000000000000000000000000007bffffffffffffffffffffffffffffffffffffffffffffffffffffffff1916827bffffffffffffffffffffffffffffffffffffffffffffffffffffffff1916148061040d57507f5b5e139f000000000000000000000000000000000000000000000000000000007bffffffffffffffffffffffffffffffffffffffffffffffffffffffff1916827bffffffffffffffffffffffffffffffffffffffffffffffffffffffff1916145b8061041d575061041c82610cfb565b5b9050919050565b60606000805461043390612726565b80601f016020809104026020016040519081016040528092919081815260200182805461045f90612726565b80156104ac5780601f10610481576101008083540402835291602001916104ac565b820191906000526020600020905b81548152906001019060200180831161048f57829003601f168201915b5050505050905090565b60006104c182610d65565b610500576040517f08c379a00000000000000000000000000000000000000000000000000000000081526004016104f790612426565b60405180910390fd5b6004600083815260200190815260200160002060009054906101000a900473ffffffffffffffffffffffffffffffffffffffff169050919050565b6000610546826106d3565b90508073ffffffffffffffffffffffffffffffffffffffff168373ffffffffffffffffffffffffffffffffffffffff1614156105b7576040517f08c379a00000000000000000000000000000000000000000000000000000000081526004016105ae90612486565b60405180910390fd5b8073ffffffffffffffffffffffffffffffffffffffff166105d6610dd1565b73ffffffffffffffffffffffffffffffffffffffff1614806106055750610604816105ff610dd1565b610c67565b5b610644576040517f08c379a000000000000000000000000000000000000000000000000000000000815260040161063b906123a6565b60405180910390fd5b61064e8383610dd9565b505050565b61066461065e610dd1565b82610e92565b6106a3576040517f08c379a000000000000000000000000000000000000000000000000000000000815260040161069a906124a6565b60405180910390fd5b6106ae838383610f70565b505050565b6106ce83838360405180602001604052806000815250610a50565b505050565b6000806002600084815260200190815260200160002060009054906101000a900473ffffffffffffffffffffffffffffffffffffffff169050600073ffffffffffffffffffffffffffffffffffffffff168173ffffffffffffffffffffffffffffffffffffffff16141561077c576040517f08c379a0000000000000000000000000000000000000000000000000000000008152600401610773906123e6565b60405180910390fd5b80915050919050565b60008073ffffffffffffffffffffffffffffffffffffffff168273ffffffffffffffffffffffffffffffffffffffff1614156107f6576040517f08c379a00000000000000000000000000000000000000000000000000000000081526004016107ed906123c6565b60405180910390fd5b600360008373ffffffffffffffffffffffffffffffffffffffff1673ffffffffffffffffffffffffffffffffffffffff168152602001908152602001600020549050919050565b60606001805461084c90612726565b80601f016020809104026020016040519081016040528092919081815260200182805461087890612726565b80156108c55780601f1061089a576101008083540402835291602001916108c5565b820191906000526020600020905b8154815290600101906020018083116108a857829003601f168201915b5050505050905090565b6108d7610dd1565b73ffffffffffffffffffffffffffffffffffffffff168273ffffffffffffffffffffffffffffffffffffffff161415610945576040517f08c379a000000000000000000000000000000000000000000000000000000000815260040161093c90612366565b60405180910390fd5b8060056000610952610dd1565b73ffffffffffffffffffffffffffffffffffffffff1673ffffffffffffffffffffffffffffffffffffffff16815260200190815260200160002060008473ffffffffffffffffffffffffffffffffffffffff1673ffffffffffffffffffffffffffffffffffffffff16815260200190815260200160002060006101000a81548160ff0219169083151502179055508173ffffffffffffffffffffffffffffffffffffffff166109ff610dd1565b73ffffffffffffffffffffffffffffffffffffffff167f17307eab39ab6107e8899845ad3d59bd9653f200f220920489ca2b5937696c3183604051610a4491906122c9565b60405180910390a35050565b610a61610a5b610dd1565b83610e92565b610aa0576040517f08c379a0000000000000000000000000000000000000000000000000000000008152600401610a97906124a6565b60405180910390fd5b610aac848484846111cc565b50505050565b6060610abd82610d65565b610afc576040517f08c379a0000000000000000000000000000000000000000000000000000000008152600401610af390612466565b60405180910390fd5b6000610b06611228565b90506000815111610b265760405180602001604052806000815250610b51565b80610b308461123f565b604051602001610b4192919061223e565b6040516020818303038152906040525b915050919050565b6000610b668484846106b3565b600190509392505050565b6000600660405180604001604052808581526020018481525090806001815401808255809150506001900390600052602060002090600202016000909190919091506000820151816000019080519060200190610bcf9291906117e2565b506020820151816001019080519060200190610bec9291906117e2565b50505060006001600680549050610c03919061263c565b9050610c0f33826113ec565b3373ffffffffffffffffffffffffffffffffffffffff167ff3cea5493d790af0133817606f7350a91d7f154ea52eaa79d179d4d231e5010282604051610c5591906124c6565b60405180910390a28091505092915050565b6000600560008473ffffffffffffffffffffffffffffffffffffffff1673ffffffffffffffffffffffffffffffffffffffff16815260200190815260200160002060008373ffffffffffffffffffffffffffffffffffffffff1673ffffffffffffffffffffffffffffffffffffffff16815260200190815260200160002060009054906101000a900460ff16905092915050565b60007f01ffc9a7000000000000000000000000000000000000000000000000000000007bffffffffffffffffffffffffffffffffffffffffffffffffffffffff1916827bffffffffffffffffffffffffffffffffffffffffffffffffffffffff1916149050919050565b60008073ffffffffffffffffffffffffffffffffffffffff166002600084815260200190815260200160002060009054906101000a900473ffffffffffffffffffffffffffffffffffffffff1673ffffffffffffffffffffffffffffffffffffffff1614159050919050565b600033905090565b816004600083815260200190815260200160002060006101000a81548173ffffffffffffffffffffffffffffffffffffffff021916908373ffffffffffffffffffffffffffffffffffffffff160217905550808273ffffffffffffffffffffffffffffffffffffffff16610e4c836106d3565b73ffffffffffffffffffffffffffffffffffffffff167f8c5be1e5ebec7d5bd14f71427d1e84f3dd0314c0f7b2291e5b200ac8c7c3b92560405160405180910390a45050565b6000610e9d82610d65565b610edc576040517f08c379a0000000000000000000000000000000000000000000000000000000008152600401610ed390612386565b60405180910390fd5b6000610ee7836106d3565b90508073ffffffffffffffffffffffffffffffffffffffff168473ffffffffffffffffffffffffffffffffffffffff161480610f5657508373ffffffffffffffffffffffffffffffffffffffff16610f3e846104b6565b73ffffffffffffffffffffffffffffffffffffffff16145b80610f675750610f668185610c67565b5b91505092915050565b8273ffffffffffffffffffffffffffffffffffffffff16610f90826106d3565b73ffffffffffffffffffffffffffffffffffffffff1614610fe6576040517f08c379a0000000000000000000000000000000000000000000000000000000008152600401610fdd90612446565b60405180910390fd5b600073ffffffffffffffffffffffffffffffffffffffff168273ffffffffffffffffffffffffffffffffffffffff161415611056576040517f08c379a000000000000000000000000000000000000000000000000000000000815260040161104d90612346565b60405180910390fd5b61106183838361140a565b61106c600082610dd9565b6001600360008573ffffffffffffffffffffffffffffffffffffffff1673ffffffffffffffffffffffffffffffffffffffff16815260200190815260200160002060008282546110bc919061263c565b925050819055506001600360008473ffffffffffffffffffffffffffffffffffffffff1673ffffffffffffffffffffffffffffffffffffffff168152602001908152602001600020600082825461111391906125b5565b92505081905550816002600083815260200190815260200160002060006101000a81548173ffffffffffffffffffffffffffffffffffffffff021916908373ffffffffffffffffffffffffffffffffffffffff160217905550808273ffffffffffffffffffffffffffffffffffffffff168473ffffffffffffffffffffffffffffffffffffffff167fddf252ad1be2c89b69c2b068fc378daa952ba7f163c4a11628f55a4df523b3ef60405160405180910390a4505050565b6111d7848484610f70565b6111e38484848461140f565b611222576040517f08c379a000000000000000000000000000000000000000000000000000000000815260040161121990612306565b60405180910390fd5b50505050565b606060405180602001604052806000815250905090565b60606000821415611287576040518060400160405280600181526020017f300000000000000000000000000000000000000000000000000000000000000081525090506113e7565b600082905060005b600082146112b95780806112a290612758565b915050600a826112b2919061260b565b915061128f565b60008167ffffffffffffffff8111156112fb577f4e487b7100000000000000000000000000000000000000000000000000000000600052604160045260246000fd5b6040519080825280601f01601f19166020018201604052801561132d5781602001600182028036833780820191505090505b5090505b600085146113e057600182611346919061263c565b9150600a8561135591906127a1565b603061136191906125b5565b60f81b81838151811061139d577f4e487b7100000000000000000000000000000000000000000000000000000000600052603260045260246000fd5b60200101907effffffffffffffffffffffffffffffffffffffffffffffffffffffffffffff1916908160001a905350600a856113d9919061260b565b9450611331565b8093505050505b919050565b6114068282604051806020016040528060008152506115a6565b5050565b505050565b60006114308473ffffffffffffffffffffffffffffffffffffffff16611601565b15611599578373ffffffffffffffffffffffffffffffffffffffff1663150b7a02611459610dd1565b8786866040518563ffffffff1660e01b815260040161147b949392919061227d565b602060405180830381600087803b15801561149557600080fd5b505af19250505080156114c657506040513d601f19601f820116820180604052508101906114c39190611b8e565b60015b611549573d80600081146114f6576040519150601f19603f3d011682016040523d82523d6000602084013e6114fb565b606091505b50600081511415611541576040517f08c379a000000000000000000000000000000000000000000000000000000000815260040161153890612306565b60405180910390fd5b805181602001fd5b63150b7a0260e01b7bffffffffffffffffffffffffffffffffffffffffffffffffffffffff1916817bffffffffffffffffffffffffffffffffffffffffffffffffffffffff19161491505061159e565b600190505b949350505050565b6115b08383611614565b6115bd600084848461140f565b6115fc576040517f08c379a00000000000000000000000000000000000000000000000000000000081526004016115f390612306565b60405180910390fd5b505050565b600080823b905060008111915050919050565b600073ffffffffffffffffffffffffffffffffffffffff168273ffffffffffffffffffffffffffffffffffffffff161415611684576040517f08c379a000000000000000000000000000000000000000000000000000000000815260040161167b90612406565b60405180910390fd5b61168d81610d65565b156116cd576040517f08c379a00000000000000000000000000000000000000000000000000000000081526004016116c490612326565b60405180910390fd5b6116d96000838361140a565b6001600360008473ffffffffffffffffffffffffffffffffffffffff1673ffffffffffffffffffffffffffffffffffffffff168152602001908152602001600020600082825461172991906125b5565b92505081905550816002600083815260200190815260200160002060006101000a81548173ffffffffffffffffffffffffffffffffffffffff021916908373ffffffffffffffffffffffffffffffffffffffff160217905550808273ffffffffffffffffffffffffffffffffffffffff16600073ffffffffffffffffffffffffffffffffffffffff167fddf252ad1be2c89b69c2b068fc378daa952ba7f163c4a11628f55a4df523b3ef60405160405180910390a45050565b8280546117ee90612726565b90600052602060002090601f0160209004810192826118105760008555611857565b82601f1061182957805160ff1916838001178555611857565b82800160010185558215611857579182015b8281111561185657825182559160200191906001019061183b565b5b5090506118649190611868565b5090565b5b80821115611881576000816000905550600101611869565b5090565b600061189861189384612512565b6124e1565b9050828152602081018484840111156118b057600080fd5b6118bb8482856126e4565b509392505050565b60006118d66118d184612542565b6124e1565b9050828152602081018484840111156118ee57600080fd5b6118f98482856126e4565b509392505050565b6000813590506119108161289f565b92915050565b600081359050611925816128b6565b92915050565b60008135905061193a816128cd565b92915050565b60008151905061194f816128cd565b92915050565b600082601f83011261196657600080fd5b8135611976848260208601611885565b91505092915050565b600082601f83011261199057600080fd5b81356119a08482602086016118c3565b91505092915050565b6000813590506119b8816128e4565b92915050565b6000602082840312156119d057600080fd5b60006119de84828501611901565b91505092915050565b600080604083850312156119fa57600080fd5b6000611a0885828601611901565b9250506020611a1985828601611901565b9150509250929050565b600080600060608486031215611a3857600080fd5b6000611a4686828701611901565b9350506020611a5786828701611901565b9250506040611a68868287016119a9565b9150509250925092565b60008060008060808587031215611a8857600080fd5b6000611a9687828801611901565b9450506020611aa787828801611901565b9350506040611ab8878288016119a9565b925050606085013567ffffffffffffffff811115611ad557600080fd5b611ae187828801611955565b91505092959194509250565b60008060408385031215611b0057600080fd5b6000611b0e85828601611901565b9250506020611b1f85828601611916565b9150509250929050565b60008060408385031215611b3c57600080fd5b6000611b4a85828601611901565b9250506020611b5b858286016119a9565b9150509250929050565b600060208284031215611b7757600080fd5b6000611b858482850161192b565b91505092915050565b600060208284031215611ba057600080fd5b6000611bae84828501611940565b91505092915050565b60008060408385031215611bca57600080fd5b600083013567ffffffffffffffff811115611be457600080fd5b611bf08582860161197f565b925050602083013567ffffffffffffffff811115611c0d57600080fd5b611c198582860161197f565b9150509250929050565b600060208284031215611c3557600080fd5b6000611c43848285016119a9565b91505092915050565b611c5581612670565b82525050565b611c6481612682565b82525050565b6000611c7582612572565b611c7f8185612588565b9350611c8f8185602086016126f3565b611c988161288e565b840191505092915050565b6000611cae8261257d565b611cb88185612599565b9350611cc88185602086016126f3565b611cd18161288e565b840191505092915050565b6000611ce78261257d565b611cf181856125aa565b9350611d018185602086016126f3565b80840191505092915050565b6000611d1a603283612599565b91507f4552433732313a207472616e7366657220746f206e6f6e20455243373231526560008301527f63656976657220696d706c656d656e74657200000000000000000000000000006020830152604082019050919050565b6000611d80601c83612599565b91507f4552433732313a20746f6b656e20616c7265616479206d696e746564000000006000830152602082019050919050565b6000611dc0602483612599565b91507f4552433732313a207472616e7366657220746f20746865207a65726f2061646460008301527f72657373000000000000000000000000000000000000000000000000000000006020830152604082019050919050565b6000611e26601983612599565b91507f4552433732313a20617070726f766520746f2063616c6c6572000000000000006000830152602082019050919050565b6000611e66602c83612599565b91507f4552433732313a206f70657261746f7220717565727920666f72206e6f6e657860008301527f697374656e7420746f6b656e00000000000000000000000000000000000000006020830152604082019050919050565b6000611ecc603883612599565b91507f4552433732313a20617070726f76652063616c6c6572206973206e6f74206f7760008301527f6e6572206e6f7220617070726f76656420666f7220616c6c00000000000000006020830152604082019050919050565b6000611f32602a83612599565b91507f4552433732313a2062616c616e636520717565727920666f7220746865207a6560008301527f726f2061646472657373000000000000000000000000000000000000000000006020830152604082019050919050565b6000611f98602983612599565b91507f4552433732313a206f776e657220717565727920666f72206e6f6e657869737460008301527f656e7420746f6b656e00000000000000000000000000000000000000000000006020830152604082019050919050565b6000611ffe602083612599565b91507f4552433732313a206d696e7420746f20746865207a65726f20616464726573736000830152602082019050919050565b600061203e602c83612599565b91507f4552433732313a20617070726f76656420717565727920666f72206e6f6e657860008301527f697374656e7420746f6b656e00000000000000000000000000000000000000006020830152604082019050919050565b60006120a4602983612599565b91507f4552433732313a207472616e73666572206f6620746f6b656e2074686174206960008301527f73206e6f74206f776e00000000000000000000000000000000000000000000006020830152604082019050919050565b600061210a602f83612599565b91507f4552433732314d657461646174613a2055524920717565727920666f72206e6f60008301527f6e6578697374656e7420746f6b656e00000000000000000000000000000000006020830152604082019050919050565b6000612170602183612599565b91507f4552433732313a20617070726f76616c20746f2063757272656e74206f776e6560008301527f72000000000000000000000000000000000000000000000000000000000000006020830152604082019050919050565b60006121d6603183612599565b91507f4552433732313a207472616e736665722063616c6c6572206973206e6f74206f60008301527f776e6572206e6f7220617070726f7665640000000000000000000000000000006020830152604082019050919050565b612238816126da565b82525050565b600061224a8285611cdc565b91506122568284611cdc565b91508190509392505050565b60006020820190506122776000830184611c4c565b92915050565b60006080820190506122926000830187611c4c565b61229f6020830186611c4c565b6122ac604083018561222f565b81810360608301526122be8184611c6a565b905095945050505050565b60006020820190506122de6000830184611c5b565b92915050565b600060208201905081810360008301526122fe8184611ca3565b905092915050565b6000602082019050818103600083015261231f81611d0d565b9050919050565b6000602082019050818103600083015261233f81611d73565b9050919050565b6000602082019050818103600083015261235f81611db3565b9050919050565b6000602082019050818103600083015261237f81611e19565b9050919050565b6000602082019050818103600083015261239f81611e59565b9050919050565b600060208201905081810360008301526123bf81611ebf565b9050919050565b600060208201905081810360008301526123df81611f25565b9050919050565b600060208201905081810360008301526123ff81611f8b565b9050919050565b6000602082019050818103600083015261241f81611ff1565b9050919050565b6000602082019050818103600083015261243f81612031565b9050919050565b6000602082019050818103600083015261245f81612097565b9050919050565b6000602082019050818103600083015261247f816120fd565b9050919050565b6000602082019050818103600083015261249f81612163565b9050919050565b600060208201905081810360008301526124bf816121c9565b9050919050565b60006020820190506124db600083018461222f565b92915050565b6000604051905081810181811067ffffffffffffffff821117156125085761250761285f565b5b8060405250919050565b600067ffffffffffffffff82111561252d5761252c61285f565b5b601f19601f8301169050602081019050919050565b600067ffffffffffffffff82111561255d5761255c61285f565b5b601f19601f8301169050602081019050919050565b600081519050919050565b600081519050919050565b600082825260208201905092915050565b600082825260208201905092915050565b600081905092915050565b60006125c0826126da565b91506125cb836126da565b9250827fffffffffffffffffffffffffffffffffffffffffffffffffffffffffffffffff03821115612600576125ff6127d2565b5b828201905092915050565b6000612616826126da565b9150612621836126da565b92508261263157612630612801565b5b828204905092915050565b6000612647826126da565b9150612652836126da565b925082821015612665576126646127d2565b5b828203905092915050565b600061267b826126ba565b9050919050565b60008115159050919050565b60007fffffffff0000000000000000000000000000000000000000000000000000000082169050919050565b600073ffffffffffffffffffffffffffffffffffffffff82169050919050565b6000819050919050565b82818337600083830152505050565b60005b838110156127115780820151818401526020810190506126f6565b83811115612720576000848401525b50505050565b6000600282049050600182168061273e57607f821691505b6020821081141561275257612751612830565b5b50919050565b6000612763826126da565b91507fffffffffffffffffffffffffffffffffffffffffffffffffffffffffffffffff821415612796576127956127d2565b5b600182019050919050565b60006127ac826126da565b91506127b7836126da565b9250826127c7576127c6612801565b5b828206905092915050565b7f4e487b7100000000000000000000000000000000000000000000000000000000600052601160045260246000fd5b7f4e487b7100000000000000000000000000000000000000000000000000000000600052601260045260246000fd5b7f4e487b7100000000000000000000000000000000000000000000000000000000600052602260045260246000fd5b7f4e487b7100000000000000000000000000000000000000000000000000000000600052604160045260246000fd5b6000601f19601f8301169050919050565b6128a881612670565b81146128b357600080fd5b50565b6128bf81612682565b81146128ca57600080fd5b50565b6128d68161268e565b81146128e157600080fd5b50565b6128ed816126da565b81146128f857600080fd5b5056fea26469706673582212205d07868cad9ffd1dfe661ecf0e9e7988da6b08d4c302229aaafb955f5859ce9a64736f6c63430008000033",
  "linkReferences": {},
  "deployedLinkReferences": {}
}