{
  "_format": "hh-sol-artifact-1",
  "contractName": "Marketplace",
  "sourceName": "contracts/Marketplace.sol",
  "abi": [
    {
      "inputs": [
        {
          "internalType": "string",
          "name": "_name",
          "type": "string"
        }
      ],
      "stateMutability": "nonpayable",
      "type": "constructor"
    },
    {
      "anonymous": false,
      "inputs": [
        {
          "indexed": false,
          "internalType": "uint256",
          "name": "auctionIndex",
          "type": "uint256"
        },
        {
          "indexed": false,
          "internalType": "uint256",
          "name": "nftId",
          "type": "uint256"
        },
        {
          "indexed": false,
          "internalType": "address",
          "name": "claimedBy",
          "type": "address"
        }
      ],
      "name": "NFTClaimed",
      "type": "event"
    },
    {
      "anonymous": false,
      "inputs": [
        {
          "indexed": false,
          "internalType": "uint256",
          "name": "auctionIndex",
          "type": "uint256"
        },
        {
          "indexed": false,
          "internalType": "uint256",
          "name": "nftId",
          "type": "uint256"
        },
        {
          "indexed": false,
          "internalType": "address",
          "name": "claimedBy",
          "type": "address"
        }
      ],
      "name": "NFTRefunded",
      "type": "event"
    },
    {
      "anonymous": false,
      "inputs": [
        {
          "indexed": false,
          "internalType": "uint256",
          "name": "index",
          "type": "uint256"
        },
        {
          "indexed": false,
          "internalType": "address",
          "name": "addressNFTCollection",
          "type": "address"
        },
        {
          "indexed": false,
          "internalType": "address",
          "name": "addressPaymentToken",
          "type": "address"
        },
        {
          "indexed": false,
          "internalType": "uint256",
          "name": "nftId",
          "type": "uint256"
        },
        {
          "indexed": false,
          "internalType": "address",
          "name": "mintedBy",
          "type": "address"
        },
        {
          "indexed": false,
          "internalType": "address",
          "name": "currentBidOwner",
          "type": "address"
        },
        {
          "indexed": false,
          "internalType": "uint256",
          "name": "currentBidPrice",
          "type": "uint256"
        },
        {
          "indexed": false,
          "internalType": "uint256",
          "name": "endAuction",
          "type": "uint256"
        },
        {
          "indexed": false,
          "internalType": "uint256",
          "name": "bidCount",
          "type": "uint256"
        }
      ],
      "name": "NewAuction",
      "type": "event"
    },
    {
      "anonymous": false,
      "inputs": [
        {
          "indexed": false,
          "internalType": "uint256",
          "name": "auctionIndex",
          "type": "uint256"
        },
        {
          "indexed": false,
          "internalType": "uint256",
          "name": "newBid",
          "type": "uint256"
        }
      ],
      "name": "NewBidOnAuction",
      "type": "event"
    },
    {
      "anonymous": false,
      "inputs": [
        {
          "indexed": false,
          "internalType": "uint256",
          "name": "auctionIndex",
          "type": "uint256"
        },
        {
          "indexed": false,
          "internalType": "uint256",
          "name": "nftId",
          "type": "uint256"
        },
        {
          "indexed": false,
          "internalType": "address",
          "name": "claimedBy",
          "type": "address"
        }
      ],
      "name": "TokensClaimed",
      "type": "event"
    },
    {
      "inputs": [
        {
          "internalType": "uint256",
          "name": "_auctionIndex",
          "type": "uint256"
        },
        {
          "internalType": "uint256",
          "name": "_newBid",
          "type": "uint256"
        }
      ],
      "name": "bid",
      "outputs": [
        {
          "internalType": "bool",
          "name": "",
          "type": "bool"
        }
      ],
      "stateMutability": "nonpayable",
      "type": "function"
    },
    {
      "inputs": [
        {
          "internalType": "uint256",
          "name": "_auctionIndex",
          "type": "uint256"
        }
      ],
      "name": "claimNFT",
      "outputs": [],
      "stateMutability": "nonpayable",
      "type": "function"
    },
    {
      "inputs": [
        {
          "internalType": "uint256",
          "name": "_auctionIndex",
          "type": "uint256"
        }
      ],
      "name": "claimToken",
      "outputs": [],
      "stateMutability": "nonpayable",
      "type": "function"
    },
    {
      "inputs": [
        {
          "internalType": "address",
          "name": "_addressNFTCollection",
          "type": "address"
        },
        {
          "internalType": "address",
          "name": "_addressPaymentToken",
          "type": "address"
        },
        {
          "internalType": "uint256",
          "name": "_nftId",
          "type": "uint256"
        },
        {
          "internalType": "uint256",
          "name": "_initialBid",
          "type": "uint256"
        },
        {
          "internalType": "uint256",
          "name": "_endAuction",
          "type": "uint256"
        }
      ],
      "name": "createAuction",
      "outputs": [
        {
          "internalType": "uint256",
          "name": "",
          "type": "uint256"
        }
      ],
      "stateMutability": "nonpayable",
      "type": "function"
    },
    {
      "inputs": [
        {
          "internalType": "uint256",
          "name": "_auctionIndex",
          "type": "uint256"
        }
      ],
      "name": "getCurrentBid",
      "outputs": [
        {
          "internalType": "uint256",
          "name": "",
          "type": "uint256"
        }
      ],
      "stateMutability": "view",
      "type": "function"
    },
    {
      "inputs": [
        {
          "internalType": "uint256",
          "name": "_auctionIndex",
          "type": "uint256"
        }
      ],
      "name": "getCurrentBidOwner",
      "outputs": [
        {
          "internalType": "address",
          "name": "",
          "type": "address"
        }
      ],
      "stateMutability": "view",
      "type": "function"
    },
    {
      "inputs": [],
      "name": "index",
      "outputs": [
        {
          "internalType": "uint256",
          "name": "",
          "type": "uint256"
        }
      ],
      "stateMutability": "view",
      "type": "function"
    },
    {
      "inputs": [
        {
          "internalType": "uint256",
          "name": "_auctionIndex",
          "type": "uint256"
        }
      ],
      "name": "isOpen",
      "outputs": [
        {
          "internalType": "bool",
          "name": "",
          "type": "bool"
        }
      ],
      "stateMutability": "view",
      "type": "function"
    },
    {
      "inputs": [],
      "name": "name",
      "outputs": [
        {
          "internalType": "string",
          "name": "",
          "type": "string"
        }
      ],
      "stateMutability": "view",
      "type": "function"
    },
    {
      "inputs": [
        {
          "internalType": "address",
          "name": "",
          "type": "address"
        },
        {
          "internalType": "address",
          "name": "",
          "type": "address"
        },
        {
          "internalType": "uint256",
          "name": "",
          "type": "uint256"
        },
        {
          "internalType": "bytes",
          "name": "",
          "type": "bytes"
        }
      ],
      "name": "onERC721Received",
      "outputs": [
        {
          "internalType": "bytes4",
          "name": "",
          "type": "bytes4"
        }
      ],
      "stateMutability": "nonpayable",
      "type": "function"
    },
    {
      "inputs": [
        {
          "internalType": "uint256",
          "name": "_auctionIndex",
          "type": "uint256"
        }
      ],
      "name": "refund",
      "outputs": [],
      "stateMutability": "nonpayable",
      "type": "function"
    }
  ],
  "bytecode": "0x608060405260006001553480156200001657600080fd5b5060405162002b1c38038062002b1c83398181016040528101906200003c91906200017e565b8060009080519060200190620000549291906200005c565b5050620002f4565b8280546200006a9062000260565b90600052602060002090601f0160209004810192826200008e5760008555620000da565b82601f10620000a957805160ff1916838001178555620000da565b82800160010185558215620000da579182015b82811115620000d9578251825591602001919060010190620000bc565b5b509050620000e99190620000ed565b5090565b5b8082111562000108576000816000905550600101620000ee565b5090565b6000620001236200011d84620001f7565b620001c3565b9050828152602081018484840111156200013c57600080fd5b620001498482856200022a565b509392505050565b600082601f8301126200016357600080fd5b8151620001758482602086016200010c565b91505092915050565b6000602082840312156200019157600080fd5b600082015167ffffffffffffffff811115620001ac57600080fd5b620001ba8482850162000151565b91505092915050565b6000604051905081810181811067ffffffffffffffff82111715620001ed57620001ec620002c5565b5b8060405250919050565b600067ffffffffffffffff821115620002155762000214620002c5565b5b601f19601f8301169050602081019050919050565b60005b838110156200024a5780820151818401526020810190506200022d565b838111156200025a576000848401525b50505050565b600060028204905060018216806200027957607f821691505b6020821081141562000290576200028f62000296565b5b50919050565b7f4e487b7100000000000000000000000000000000000000000000000000000000600052602260045260246000fd5b7f4e487b7100000000000000000000000000000000000000000000000000000000600052604160045260246000fd5b61281880620003046000396000f3fe608060405234801561001057600080fd5b50600436106100a95760003560e01c80634d6861a6116100715780634d6861a614610166578063598647f81461019657806386b46073146101c6578063a9e7c2e5146101f6578063da4e364f14610212578063fe5c873a14610242576100a9565b806306fdde03146100ae578063150b7a02146100cc578063278ecde1146100fc5780632986c0e514610118578063310bf58314610136575b600080fd5b6100b661025e565b6040516100c391906121ff565b60405180910390f35b6100e660048036038101906100e191906119eb565b6102ec565b6040516100f391906121e4565b60405180910390f35b61011660048036038101906101119190611b06565b610300565b005b610120610605565b60405161012d9190612401565b60405180910390f35b610150600480360381019061014b9190611a66565b61060b565b60405161015d9190612401565b60405180910390f35b610180600480360381019061017b9190611b06565b610c3b565b60405161018d91906121c9565b60405180910390f35b6101b060048036038101906101ab9190611b2f565b610ca8565b6040516101bd91906121c9565b60405180910390f35b6101e060048036038101906101db9190611b06565b6110ca565b6040516101ed91906120ee565b60405180910390f35b610210600480360381019061020b9190611b06565b611186565b005b61022c60048036038101906102279190611b06565b6114d8565b6040516102399190612401565b60405180910390f35b61025c60048036038101906102579190611b06565b611574565b005b6000805461026b90612684565b80601f016020809104026020016040519081016040528092919081815260200182805461029790612684565b80156102e45780601f106102b9576101008083540402835291602001916102e4565b820191906000526020600020905b8154815290600101906020018083116102c757829003601f168201915b505050505081565b600063150b7a0260e01b9050949350505050565b6002805490508110610347576040517f08c379a000000000000000000000000000000000000000000000000000000000815260040161033e90612301565b60405180910390fd5b61035081610c3b565b15610390576040517f08c379a000000000000000000000000000000000000000000000000000000000815260040161038790612281565b60405180910390fd5b6000600282815481106103cc577f4e487b7100000000000000000000000000000000000000000000000000000000600052603260045260246000fd5b906000526020600020906009020190503373ffffffffffffffffffffffffffffffffffffffff168160040160009054906101000a900473ffffffffffffffffffffffffffffffffffffffff1673ffffffffffffffffffffffffffffffffffffffff161461046e576040517f08c379a0000000000000000000000000000000000000000000000000000000008152600401610465906123c1565b60405180910390fd5b600073ffffffffffffffffffffffffffffffffffffffff168160050160009054906101000a900473ffffffffffffffffffffffffffffffffffffffff1673ffffffffffffffffffffffffffffffffffffffff1614610501576040517f08c379a00000000000000000000000000000000000000000000000000000000081526004016104f8906123a1565b60405180910390fd5b60008160010160009054906101000a900473ffffffffffffffffffffffffffffffffffffffff1690508073ffffffffffffffffffffffffffffffffffffffff166323b872dd308460040160009054906101000a900473ffffffffffffffffffffffffffffffffffffffff1685600301546040518463ffffffff1660e01b815260040161058f93929190612169565b600060405180830381600087803b1580156105a957600080fd5b505af11580156105bd573d6000803e3d6000fd5b505050507f7dfbb77cc823ba323508cf4299ef206c31bf00a33e43ac269c79f793f6bd12c7838360030154336040516105f8939291906124d2565b60405180910390a1505050565b60015481565b6000610616866118f3565b610655576040517f08c379a000000000000000000000000000000000000000000000000000000000815260040161064c906122c1565b60405180910390fd5b61065e856118f3565b61069d576040517f08c379a000000000000000000000000000000000000000000000000000000000815260040161069490612261565b60405180910390fd5b4282116106df576040517f08c379a00000000000000000000000000000000000000000000000000000000081526004016106d690612381565b60405180910390fd5b60008311610722576040517f08c379a0000000000000000000000000000000000000000000000000000000008152600401610719906122e1565b60405180910390fd5b60008690503373ffffffffffffffffffffffffffffffffffffffff168173ffffffffffffffffffffffffffffffffffffffff16636352211e876040518263ffffffff1660e01b81526004016107779190612401565b60206040518083038186803b15801561078f57600080fd5b505afa1580156107a3573d6000803e3d6000fd5b505050506040513d601f19601f820116820180604052508101906107c791906119c2565b73ffffffffffffffffffffffffffffffffffffffff161461081d576040517f08c379a000000000000000000000000000000000000000000000000000000000815260040161081490612341565b60405180910390fd5b3073ffffffffffffffffffffffffffffffffffffffff168173ffffffffffffffffffffffffffffffffffffffff1663081812fc876040518263ffffffff1660e01b815260040161086d9190612401565b60206040518083038186803b15801561088557600080fd5b505afa158015610899573d6000803e3d6000fd5b505050506040513d601f19601f820116820180604052508101906108bd91906119c2565b73ffffffffffffffffffffffffffffffffffffffff1614610913576040517f08c379a000000000000000000000000000000000000000000000000000000000815260040161090a90612361565b60405180910390fd5b8073ffffffffffffffffffffffffffffffffffffffff1663cde08c403330886040518463ffffffff1660e01b815260040161095093929190612169565b602060405180830381600087803b15801561096a57600080fd5b505af115801561097e573d6000803e3d6000fd5b505050506040513d601f19601f820116820180604052508101906109a29190611add565b6109ab57600080fd5b60008060405180610120016040528060015481526020018a73ffffffffffffffffffffffffffffffffffffffff1681526020018973ffffffffffffffffffffffffffffffffffffffff1681526020018881526020013373ffffffffffffffffffffffffffffffffffffffff1681526020018373ffffffffffffffffffffffffffffffffffffffff1681526020018781526020018681526020016000815250905060028190806001815401808255809150506001900390600052602060002090600902016000909190919091506000820151816000015560208201518160010160006101000a81548173ffffffffffffffffffffffffffffffffffffffff021916908373ffffffffffffffffffffffffffffffffffffffff16021790555060408201518160020160006101000a81548173ffffffffffffffffffffffffffffffffffffffff021916908373ffffffffffffffffffffffffffffffffffffffff1602179055506060820151816003015560808201518160040160006101000a81548173ffffffffffffffffffffffffffffffffffffffff021916908373ffffffffffffffffffffffffffffffffffffffff16021790555060a08201518160050160006101000a81548173ffffffffffffffffffffffffffffffffffffffff021916908373ffffffffffffffffffffffffffffffffffffffff16021790555060c0820151816006015560e082015181600701556101008201518160080155505060016000815480929190610bdb906126b6565b91905055507f2fe15e5d20eaeaefdae63cab840dcb1ae80e7eaf6c60000aaaba96a6dc4ce8746001548a8a8a33878c8c6000604051610c229998979695949392919061241c565b60405180910390a1600154935050505095945050505050565b60008060028381548110610c78577f4e487b7100000000000000000000000000000000000000000000000000000000600052603260045260246000fd5b9060005260206000209060090201905080600701544210610c9d576000915050610ca3565b60019150505b919050565b60006002805490508310610cf1576040517f08c379a0000000000000000000000000000000000000000000000000000000008152600401610ce890612301565b60405180910390fd5b600060028481548110610d2d577f4e487b7100000000000000000000000000000000000000000000000000000000600052603260045260246000fd5b90600052602060002090600902019050610d4684610c3b565b610d85576040517f08c379a0000000000000000000000000000000000000000000000000000000008152600401610d7c90612321565b60405180910390fd5b80600601548311610dcb576040517f08c379a0000000000000000000000000000000000000000000000000000000008152600401610dc2906123e1565b60405180910390fd5b8060040160009054906101000a900473ffffffffffffffffffffffffffffffffffffffff1673ffffffffffffffffffffffffffffffffffffffff163373ffffffffffffffffffffffffffffffffffffffff161415610e5e576040517f08c379a0000000000000000000000000000000000000000000000000000000008152600401610e5590612221565b60405180910390fd5b60008160020160009054906101000a900473ffffffffffffffffffffffffffffffffffffffff1690508073ffffffffffffffffffffffffffffffffffffffff166323b872dd3330876040518463ffffffff1660e01b8152600401610ec493929190612169565b602060405180830381600087803b158015610ede57600080fd5b505af1158015610ef2573d6000803e3d6000fd5b505050506040513d601f19601f82011682018060405250810190610f169190611add565b610f55576040517f08c379a0000000000000000000000000000000000000000000000000000000008152600401610f4c90612241565b60405180910390fd5b600082600801541115611019578073ffffffffffffffffffffffffffffffffffffffff1663a9059cbb8360050160009054906101000a900473ffffffffffffffffffffffffffffffffffffffff1684600601546040518363ffffffff1660e01b8152600401610fc5929190612109565b602060405180830381600087803b158015610fdf57600080fd5b505af1158015610ff3573d6000803e3d6000fd5b505050506040513d601f19601f820116820180604052508101906110179190611add565b505b6000339050808360050160006101000a81548173ffffffffffffffffffffffffffffffffffffffff021916908373ffffffffffffffffffffffffffffffffffffffff16021790555084836006018190555082600801600081548092919061107f906126b6565b91905055507f0819577efdbcc6f20344847ff1b0cf5099165317fa8c0cec472cf1b2c83515c686866040516110b59291906124a9565b60405180910390a16001935050505092915050565b60006002805490508210611113576040517f08c379a000000000000000000000000000000000000000000000000000000000815260040161110a90612301565b60405180910390fd5b6002828154811061114d577f4e487b7100000000000000000000000000000000000000000000000000000000600052603260045260246000fd5b906000526020600020906009020160050160009054906101000a900473ffffffffffffffffffffffffffffffffffffffff169050919050565b60028054905081106111cd576040517f08c379a00000000000000000000000000000000000000000000000000000000081526004016111c490612301565b60405180910390fd5b6111d681610c3b565b15611216576040517f08c379a000000000000000000000000000000000000000000000000000000000815260040161120d90612281565b60405180910390fd5b600060028281548110611252577f4e487b7100000000000000000000000000000000000000000000000000000000600052603260045260246000fd5b906000526020600020906009020190503373ffffffffffffffffffffffffffffffffffffffff168160040160009054906101000a900473ffffffffffffffffffffffffffffffffffffffff1673ffffffffffffffffffffffffffffffffffffffff16146112f4576040517f08c379a00000000000000000000000000000000000000000000000000000000081526004016112eb906123c1565b60405180910390fd5b60008160010160009054906101000a900473ffffffffffffffffffffffffffffffffffffffff1690508073ffffffffffffffffffffffffffffffffffffffff166323b872dd308460050160009054906101000a900473ffffffffffffffffffffffffffffffffffffffff1685600301546040518463ffffffff1660e01b815260040161138293929190612132565b600060405180830381600087803b15801561139c57600080fd5b505af11580156113b0573d6000803e3d6000fd5b5050505060008260020160009054906101000a900473ffffffffffffffffffffffffffffffffffffffff1690508073ffffffffffffffffffffffffffffffffffffffff1663a9059cbb8460040160009054906101000a900473ffffffffffffffffffffffffffffffffffffffff1685600601546040518363ffffffff1660e01b81526004016114409291906121a0565b602060405180830381600087803b15801561145a57600080fd5b505af115801561146e573d6000803e3d6000fd5b505050506040513d601f19601f820116820180604052508101906114929190611add565b507f74d693d132dbe07a071ac2e6d043de8ca215aeaa3df9b1150643fd73f2027254848460030154336040516114ca939291906124d2565b60405180910390a150505050565b60006002805490508210611521576040517f08c379a000000000000000000000000000000000000000000000000000000000815260040161151890612301565b60405180910390fd5b6002828154811061155b577f4e487b7100000000000000000000000000000000000000000000000000000000600052603260045260246000fd5b9060005260206000209060090201600601549050919050565b60028054905081106115bb576040517f08c379a00000000000000000000000000000000000000000000000000000000081526004016115b290612301565b60405180910390fd5b6115c481610c3b565b15611604576040517f08c379a00000000000000000000000000000000000000000000000000000000081526004016115fb90612281565b60405180910390fd5b600060028281548110611640577f4e487b7100000000000000000000000000000000000000000000000000000000600052603260045260246000fd5b906000526020600020906009020190503373ffffffffffffffffffffffffffffffffffffffff168160050160009054906101000a900473ffffffffffffffffffffffffffffffffffffffff1673ffffffffffffffffffffffffffffffffffffffff16146116e2576040517f08c379a00000000000000000000000000000000000000000000000000000000081526004016116d9906122a1565b60405180910390fd5b60008160010160009054906101000a900473ffffffffffffffffffffffffffffffffffffffff1690508073ffffffffffffffffffffffffffffffffffffffff1663cde08c40308460050160009054906101000a900473ffffffffffffffffffffffffffffffffffffffff16866040518463ffffffff1660e01b815260040161176c93929190612132565b602060405180830381600087803b15801561178657600080fd5b505af115801561179a573d6000803e3d6000fd5b505050506040513d601f19601f820116820180604052508101906117be9190611add565b6117c757600080fd5b60008260020160009054906101000a900473ffffffffffffffffffffffffffffffffffffffff1690508073ffffffffffffffffffffffffffffffffffffffff1663a9059cbb8460040160009054906101000a900473ffffffffffffffffffffffffffffffffffffffff1685600601546040518363ffffffff1660e01b81526004016118539291906121a0565b602060405180830381600087803b15801561186d57600080fd5b505af1158015611881573d6000803e3d6000fd5b505050506040513d601f19601f820116820180604052508101906118a59190611add565b6118ae57600080fd5b7f7d4f7628c7b4939e94b123a69aabebcd8fbc8bac313fa8c20b7b71cb1601d396848460030154336040516118e5939291906124d2565b60405180910390a150505050565b600080823b905060008111915050919050565b60006119196119148461253a565b612509565b90508281526020810184848401111561193157600080fd5b61193c848285612642565b509392505050565b6000813590506119538161279d565b92915050565b6000815190506119688161279d565b92915050565b60008151905061197d816127b4565b92915050565b600082601f83011261199457600080fd5b81356119a4848260208601611906565b91505092915050565b6000813590506119bc816127cb565b92915050565b6000602082840312156119d457600080fd5b60006119e284828501611959565b91505092915050565b60008060008060808587031215611a0157600080fd5b6000611a0f87828801611944565b9450506020611a2087828801611944565b9350506040611a31878288016119ad565b925050606085013567ffffffffffffffff811115611a4e57600080fd5b611a5a87828801611983565b91505092959194509250565b600080600080600060a08688031215611a7e57600080fd5b6000611a8c88828901611944565b9550506020611a9d88828901611944565b9450506040611aae888289016119ad565b9350506060611abf888289016119ad565b9250506080611ad0888289016119ad565b9150509295509295909350565b600060208284031215611aef57600080fd5b6000611afd8482850161196e565b91505092915050565b600060208284031215611b1857600080fd5b6000611b26848285016119ad565b91505092915050565b60008060408385031215611b4257600080fd5b6000611b50858286016119ad565b9250506020611b61858286016119ad565b9150509250929050565b611b74816125fa565b82525050565b611b8381612586565b82525050565b611b9281612598565b82525050565b611ba1816125a4565b82525050565b611bb08161260c565b82525050565b6000611bc18261256a565b611bcb8185612575565b9350611bdb818560208601612651565b611be48161278c565b840191505092915050565b6000611bfc602b83612575565b91507f43726561746f72206f66207468652061756374696f6e2063616e6e6f7420706c60008301527f616365206e6577206269640000000000000000000000000000000000000000006020830152604082019050919050565b6000611c62601783612575565b91507f5472616e666572206f6620746f6b656e206661696c65640000000000000000006000830152602082019050919050565b6000611ca2602683612575565b91507f496e76616c6964205061796d656e7420546f6b656e20636f6e7472616374206160008301527f64647265737300000000000000000000000000000000000000000000000000006020830152604082019050919050565b6000611d08601583612575565b91507f41756374696f6e206973207374696c6c206f70656e00000000000000000000006000830152602082019050919050565b6000611d48603083612575565b91507f4e46542063616e20626520636c61696d6564206f6e6c7920627920746865206360008301527f757272656e7420626964206f776e6572000000000000000000000000000000006020830152604082019050919050565b6000611dae602783612575565b91507f496e76616c6964204e465420436f6c6c656374696f6e20636f6e74726163742060008301527f61646472657373000000000000000000000000000000000000000000000000006020830152604082019050919050565b6000611e14601983612575565b91507f496e76616c696420696e697469616c20626964207072696365000000000000006000830152602082019050919050565b6000611e54601583612575565b91507f496e76616c69642061756374696f6e20696e64657800000000000000000000006000830152602082019050919050565b6000611e94601383612575565b91507f41756374696f6e206973206e6f74206f70656e000000000000000000000000006000830152602082019050919050565b6000611ed4602283612575565b91507f43616c6c6572206973206e6f7420746865206f776e6572206f6620746865204e60008301527f46540000000000000000000000000000000000000000000000000000000000006020830152604082019050919050565b6000611f3a602783612575565b91507f52657175697265204e4654206f776e657273686970207472616e73666572206160008301527f7070726f76616c000000000000000000000000000000000000000000000000006020830152604082019050919050565b6000611fa0601c83612575565b91507f496e76616c696420656e64206461746520666f722061756374696f6e000000006000830152602082019050919050565b6000611fe0601f83612575565b91507f4578697374696e6720626964657220666f7220746869732061756374696f6e006000830152602082019050919050565b6000612020603883612575565b91507f546f6b656e732063616e20626520636c61696d6564206f6e6c7920627920746860008301527f652063726561746f72206f66207468652061756374696f6e00000000000000006020830152604082019050919050565b6000612086603183612575565b91507f4e657720626964207072696365206d757374206265206869676865722074686160008301527f6e207468652063757272656e74206269640000000000000000000000000000006020830152604082019050919050565b6120e8816125f0565b82525050565b60006020820190506121036000830184611b7a565b92915050565b600060408201905061211e6000830185611b6b565b61212b60208301846120df565b9392505050565b60006060820190506121476000830186611b7a565b6121546020830185611b6b565b61216160408301846120df565b949350505050565b600060608201905061217e6000830186611b7a565b61218b6020830185611b7a565b61219860408301846120df565b949350505050565b60006040820190506121b56000830185611b7a565b6121c260208301846120df565b9392505050565b60006020820190506121de6000830184611b89565b92915050565b60006020820190506121f96000830184611b98565b92915050565b600060208201905081810360008301526122198184611bb6565b905092915050565b6000602082019050818103600083015261223a81611bef565b9050919050565b6000602082019050818103600083015261225a81611c55565b9050919050565b6000602082019050818103600083015261227a81611c95565b9050919050565b6000602082019050818103600083015261229a81611cfb565b9050919050565b600060208201905081810360008301526122ba81611d3b565b9050919050565b600060208201905081810360008301526122da81611da1565b9050919050565b600060208201905081810360008301526122fa81611e07565b9050919050565b6000602082019050818103600083015261231a81611e47565b9050919050565b6000602082019050818103600083015261233a81611e87565b9050919050565b6000602082019050818103600083015261235a81611ec7565b9050919050565b6000602082019050818103600083015261237a81611f2d565b9050919050565b6000602082019050818103600083015261239a81611f93565b9050919050565b600060208201905081810360008301526123ba81611fd3565b9050919050565b600060208201905081810360008301526123da81612013565b9050919050565b600060208201905081810360008301526123fa81612079565b9050919050565b600060208201905061241660008301846120df565b92915050565b600061012082019050612432600083018c6120df565b61243f602083018b611b7a565b61244c604083018a611b7a565b61245960608301896120df565b6124666080830188611b7a565b61247360a0830187611b6b565b61248060c08301866120df565b61248d60e08301856120df565b61249b610100830184611ba7565b9a9950505050505050505050565b60006040820190506124be60008301856120df565b6124cb60208301846120df565b9392505050565b60006060820190506124e760008301866120df565b6124f460208301856120df565b6125016040830184611b7a565b949350505050565b6000604051905081810181811067ffffffffffffffff821117156125305761252f61275d565b5b8060405250919050565b600067ffffffffffffffff8211156125555761255461275d565b5b601f19601f8301169050602081019050919050565b600081519050919050565b600082825260208201905092915050565b6000612591826125d0565b9050919050565b60008115159050919050565b60007fffffffff0000000000000000000000000000000000000000000000000000000082169050919050565b600073ffffffffffffffffffffffffffffffffffffffff82169050919050565b6000819050919050565b60006126058261261e565b9050919050565b6000612617826125f0565b9050919050565b600061262982612630565b9050919050565b600061263b826125d0565b9050919050565b82818337600083830152505050565b60005b8381101561266f578082015181840152602081019050612654565b8381111561267e576000848401525b50505050565b6000600282049050600182168061269c57607f821691505b602082108114156126b0576126af61272e565b5b50919050565b60006126c1826125f0565b91507fffffffffffffffffffffffffffffffffffffffffffffffffffffffffffffffff8214156126f4576126f36126ff565b5b600182019050919050565b7f4e487b7100000000000000000000000000000000000000000000000000000000600052601160045260246000fd5b7f4e487b7100000000000000000000000000000000000000000000000000000000600052602260045260246000fd5b7f4e487b7100000000000000000000000000000000000000000000000000000000600052604160045260246000fd5b6000601f19601f8301169050919050565b6127a681612586565b81146127b157600080fd5b50565b6127bd81612598565b81146127c857600080fd5b50565b6127d4816125f0565b81146127df57600080fd5b5056fea264697066735822122056e110d0927c5fdf6cecdd004f5866d551e6d4e2e500342ae8e13e34cc9876dc64736f6c63430008000033",
  "linkReferences": {},
  "deployedLinkReferences": {}
}